{
  "contractName": "g_rs",
  "abi": [
    {
      "inputs": [],
      "stateMutability": "payable",
      "type": "constructor",
      "payable": true
    },
    {
      "anonymous": false,
      "inputs": [],
      "name": "Closed",
      "type": "event"
    },
    {
      "anonymous": false,
      "inputs": [
        {
          "indexed": false,
          "internalType": "uint256",
          "name": "paymentIndex",
          "type": "uint256"
        }
      ],
      "name": "Payed",
      "type": "event"
    },
    {
      "anonymous": false,
      "inputs": [
        {
          "indexed": false,
          "internalType": "uint256",
          "name": "paymentIndex",
          "type": "uint256"
        }
      ],
      "name": "Released",
      "type": "event"
    },
    {
      "anonymous": false,
      "inputs": [
        {
          "indexed": false,
          "internalType": "uint256",
          "name": "buyerIndex",
          "type": "uint256"
        }
      ],
      "name": "Terminated",
      "type": "event"
    },
    {
      "anonymous": false,
      "inputs": [],
      "name": "TerminatedByOutOfDate",
      "type": "event"
    },
    {
      "inputs": [],
      "name": "CloseTime",
      "outputs": [
        {
          "internalType": "uint256",
          "name": "",
          "type": "uint256"
        }
      ],
      "stateMutability": "view",
      "type": "function",
      "constant": true
    },
    {
      "inputs": [],
      "name": "EffectiveTime",
      "outputs": [
        {
          "internalType": "uint256",
          "name": "",
          "type": "uint256"
        }
      ],
      "stateMutability": "view",
      "type": "function",
      "constant": true
    },
    {
      "inputs": [],
      "name": "OutSideClosingDate",
      "outputs": [
        {
          "internalType": "uint256",
          "name": "",
          "type": "uint256"
        }
      ],
      "stateMutability": "view",
      "type": "function",
      "constant": true
    },
    {
      "inputs": [
        {
          "internalType": "uint256",
          "name": "",
          "type": "uint256"
        }
      ],
      "name": "buyer",
      "outputs": [
        {
          "internalType": "address payable",
          "name": "",
          "type": "address"
        }
      ],
      "stateMutability": "view",
      "type": "function",
      "constant": true
    },
    {
      "inputs": [
        {
          "internalType": "uint256",
          "name": "",
          "type": "uint256"
        }
      ],
      "name": "buyerName",
      "outputs": [
        {
          "internalType": "string",
          "name": "",
          "type": "string"
        }
      ],
      "stateMutability": "view",
      "type": "function",
      "constant": true
    },
    {
      "inputs": [],
      "name": "owner",
      "outputs": [
        {
          "internalType": "address",
          "name": "",
          "type": "address"
        }
      ],
      "stateMutability": "view",
      "type": "function",
      "constant": true
    },
    {
      "inputs": [
        {
          "internalType": "uint256",
          "name": "",
          "type": "uint256"
        }
      ],
      "name": "pricePayedByBuyer",
      "outputs": [
        {
          "internalType": "uint256",
          "name": "",
          "type": "uint256"
        }
      ],
      "stateMutability": "view",
      "type": "function",
      "constant": true
    },
    {
      "inputs": [
        {
          "internalType": "uint256",
          "name": "",
          "type": "uint256"
        }
      ],
      "name": "purchaseBuyerConfirmed",
      "outputs": [
        {
          "internalType": "bool",
          "name": "",
          "type": "bool"
        }
      ],
      "stateMutability": "view",
      "type": "function",
      "constant": true
    },
    {
      "inputs": [
        {
          "internalType": "uint256",
          "name": "",
          "type": "uint256"
        }
      ],
      "name": "purchaseSellerConfirmed",
      "outputs": [
        {
          "internalType": "bool",
          "name": "",
          "type": "bool"
        }
      ],
      "stateMutability": "view",
      "type": "function",
      "constant": true
    },
    {
      "inputs": [],
      "name": "seller",
      "outputs": [
        {
          "internalType": "address payable",
          "name": "",
          "type": "address"
        }
      ],
      "stateMutability": "view",
      "type": "function",
      "constant": true
    },
    {
      "inputs": [],
      "name": "sellerName",
      "outputs": [
        {
          "internalType": "string",
          "name": "",
          "type": "string"
        }
      ],
      "stateMutability": "view",
      "type": "function",
      "constant": true
    },
    {
      "inputs": [
        {
          "internalType": "uint256",
          "name": "",
          "type": "uint256"
        }
      ],
      "name": "state",
      "outputs": [
        {
          "internalType": "enum g_rs.State",
          "name": "",
          "type": "uint8"
        }
      ],
      "stateMutability": "view",
      "type": "function",
      "constant": true
    },
    {
      "inputs": [
        {
          "internalType": "uint256",
          "name": "",
          "type": "uint256"
        }
      ],
      "name": "terminateBuyerConfirmed",
      "outputs": [
        {
          "internalType": "bool",
          "name": "",
          "type": "bool"
        }
      ],
      "stateMutability": "view",
      "type": "function",
      "constant": true
    },
    {
      "inputs": [
        {
          "internalType": "uint256",
          "name": "",
          "type": "uint256"
        }
      ],
      "name": "terminateSellerConfirmed",
      "outputs": [
        {
          "internalType": "bool",
          "name": "",
          "type": "bool"
        }
      ],
      "stateMutability": "view",
      "type": "function",
      "constant": true
    },
    {
      "inputs": [],
      "name": "pay_0",
      "outputs": [],
      "stateMutability": "payable",
      "type": "function",
      "payable": true
    },
    {
      "inputs": [
        {
          "internalType": "uint256",
          "name": "buyerIndex",
          "type": "uint256"
        }
      ],
      "name": "purchaseConfirm",
      "outputs": [],
      "stateMutability": "nonpayable",
      "type": "function"
    },
    {
      "inputs": [],
      "name": "payRelease_0",
      "outputs": [],
      "stateMutability": "nonpayable",
      "type": "function"
    },
    {
      "inputs": [
        {
          "internalType": "string",
          "name": "fileName",
          "type": "string"
        },
        {
          "internalType": "uint32",
          "name": "hashCode",
          "type": "uint32"
        }
      ],
      "name": "uploadFileHash",
      "outputs": [],
      "stateMutability": "nonpayable",
      "type": "function"
    },
    {
      "inputs": [
        {
          "internalType": "uint256",
          "name": "buyerIndex",
          "type": "uint256"
        }
      ],
      "name": "terminateByTransfer",
      "outputs": [],
      "stateMutability": "nonpayable",
      "type": "function"
    },
    {
      "inputs": [],
      "name": "terminateByOutOfDate",
      "outputs": [],
      "stateMutability": "nonpayable",
      "type": "function"
    },
    {
      "inputs": [],
      "name": "close",
      "outputs": [],
      "stateMutability": "nonpayable",
      "type": "function"
    },
    {
      "inputs": [
        {
          "internalType": "address",
          "name": "addr",
          "type": "address"
        }
      ],
      "name": "setOracleAddress",
      "outputs": [],
      "stateMutability": "nonpayable",
      "type": "function"
    },
    {
      "inputs": [
        {
          "internalType": "address payable",
          "name": "addr",
          "type": "address"
        }
      ],
      "name": "setSellerAddress",
      "outputs": [],
      "stateMutability": "nonpayable",
      "type": "function"
    },
    {
      "inputs": [
        {
          "internalType": "address payable[]",
          "name": "addrs",
          "type": "address[]"
        }
      ],
      "name": "setBuyerAddress",
      "outputs": [],
      "stateMutability": "nonpayable",
      "type": "function"
    },
    {
      "inputs": [
        {
          "internalType": "enum g_rs.State",
          "name": "s",
          "type": "uint8"
        }
      ],
      "name": "setAllState",
      "outputs": [],
      "stateMutability": "nonpayable",
      "type": "function"
    },
    {
      "inputs": [
        {
          "internalType": "string",
          "name": "fileName",
          "type": "string"
        }
      ],
      "name": "getFileHash",
      "outputs": [
        {
          "internalType": "uint32",
          "name": "",
          "type": "uint32"
        }
      ],
      "stateMutability": "view",
      "type": "function",
      "constant": true
    }
  ],
  "bytecode": "0x608060405233600f60006101000a81548173ffffffffffffffffffffffffffffffffffffffff021916908373ffffffffffffffffffffffffffffffffffffffff1602179055506040518060400160405280601581526020017f42414e4b204f4620414d45524943412c204e2e412e000000000000000000000081525060039080519060200190620000929291906200033b565b506040518060200160405280604051806060016040528060268152602001620038c6602691398152506004906001620000cd929190620003cc565b5060008060006101000a81548173ffffffffffffffffffffffffffffffffffffffff021916908373ffffffffffffffffffffffffffffffffffffffff1602179055506040518060200160405280600073ffffffffffffffffffffffffffffffffffffffff1673ffffffffffffffffffffffffffffffffffffffff1681525060019060016200015d92919062000433565b506343d811006005819055506103e86006819055506103e8600781905550600e600090806001815401808255809150506001900390600052602060002090602091828204019190069091909190916101000a81548160ff02191690836004811115620001f2577f4e487b7100000000000000000000000000000000000000000000000000000000600052602160045260246000fd5b02179055506008600090806001815401808255809150506001900390600052602060002001600090919091909150556009600090806001815401808255809150506001900390600052602060002090602091828204019190069091909190916101000a81548160ff021916908315150217905550600a600090806001815401808255809150506001900390600052602060002090602091828204019190069091909190916101000a81548160ff021916908315150217905550600c600090806001815401808255809150506001900390600052602060002090602091828204019190069091909190916101000a81548160ff021916908315150217905550600d600090806001815401808255809150506001900390600052602060002090602091828204019190069091909190916101000a81548160ff021916908315150217905550620005b4565b82805462000349906200054f565b90600052602060002090601f0160209004810192826200036d5760008555620003b9565b82601f106200038857805160ff1916838001178555620003b9565b82800160010185558215620003b9579182015b82811115620003b85782518255916020019190600101906200039b565b5b509050620003c89190620004c2565b5090565b82805482825590600052602060002090810192821562000420579160200282015b828111156200041f5782518290805190602001906200040e9291906200033b565b5091602001919060010190620003ed565b5b5090506200042f9190620004e1565b5090565b828054828255906000526020600020908101928215620004af579160200282015b82811115620004ae5782518260006101000a81548173ffffffffffffffffffffffffffffffffffffffff021916908373ffffffffffffffffffffffffffffffffffffffff1602179055509160200191906001019062000454565b5b509050620004be9190620004c2565b5090565b5b80821115620004dd576000816000905550600101620004c3565b5090565b5b80821115620005055760008181620004fb919062000509565b50600101620004e2565b5090565b50805462000517906200054f565b6000825580601f106200052b57506200054c565b601f0160209004906000526020600020908101906200054b9190620004c2565b5b50565b600060028204905060018216806200056857607f821691505b602082108114156200057f576200057e62000585565b5b50919050565b7f4e487b7100000000000000000000000000000000000000000000000000000000600052602260045260246000fd5b61330280620005c46000396000f3fe6080604052600436106101815760003560e01c80636688c7c6116100d1578063aaebeb7a1161008a578063dd9a203911610064578063dd9a203914610561578063eb357f401461058a578063ef3a2a72146105b3578063f880680b146105de57610181565b8063aaebeb7a146104e4578063bffbc63214610521578063d7adff5e1461054a57610181565b80636688c7c6146103c057806379801441146103eb5780638178fefb146104165780638da5cb5b14610453578063a12df12e1461047e578063a613f485146104a757610181565b806343d726d61161013e5780634dd4acaf116101185780634dd4acaf146102f25780634f27bb091461032f578063535d18c31461035a578063652915791461039757610181565b806343d726d61461029b5780634b9f476a146102b25780634c69c00f146102c957610181565b806303323cf41461018657806308551a53146101c35780631224c7ed146101ee57806312ff64ef146101f85780633996a615146102355780633e4f49e61461025e575b600080fd5b34801561019257600080fd5b506101ad60048036038101906101a8919061274a565b61061b565b6040516101ba9190612c6e565b60405180910390f35b3480156101cf57600080fd5b506101d861064f565b6040516101e59190612c53565b60405180910390f35b6101f6610673565b005b34801561020457600080fd5b5061021f600480360381019061021a919061274a565b610c40565b60405161022c9190612e81565b60405180910390f35b34801561024157600080fd5b5061025c6004803603810190610257919061274a565b610c64565b005b34801561026a57600080fd5b506102856004803603810190610280919061274a565b61108c565b6040516102929190612c89565b60405180910390f35b3480156102a757600080fd5b506102b06110c0565b005b3480156102be57600080fd5b506102c7611297565b005b3480156102d557600080fd5b506102f060048036038101906102eb91906125f9565b611755565b005b3480156102fe57600080fd5b506103196004803603810190610314919061274a565b611829565b6040516103269190612c53565b60405180910390f35b34801561033b57600080fd5b50610344611868565b6040516103519190612e81565b60405180910390f35b34801561036657600080fd5b50610381600480360381019061037c919061274a565b61186e565b60405161038e9190612c6e565b60405180910390f35b3480156103a357600080fd5b506103be60048036038101906103b9919061264b565b6118a2565b005b3480156103cc57600080fd5b506103d561194c565b6040516103e29190612cbf565b60405180910390f35b3480156103f757600080fd5b506104006119da565b60405161040d9190612e81565b60405180910390f35b34801561042257600080fd5b5061043d6004803603810190610438919061274a565b6119e0565b60405161044a9190612c6e565b60405180910390f35b34801561045f57600080fd5b50610468611a14565b6040516104759190612c38565b60405180910390f35b34801561048a57600080fd5b506104a560048036038101906104a09190612622565b611a3a565b005b3480156104b357600080fd5b506104ce60048036038101906104c9919061274a565b611b0d565b6040516104db9190612cbf565b60405180910390f35b3480156104f057600080fd5b5061050b6004803603810190610506919061274a565b611bb9565b6040516105189190612c6e565b60405180910390f35b34801561052d57600080fd5b506105486004803603810190610543919061274a565b611bed565b005b34801561055657600080fd5b5061055f611e58565b005b34801561056d57600080fd5b50610588600480360381019061058391906126f6565b61211e565b005b34801561059657600080fd5b506105b160048036038101906105ac919061268c565b6121a7565b005b3480156105bf57600080fd5b506105c8612268565b6040516105d59190612e81565b60405180910390f35b3480156105ea57600080fd5b50610605600480360381019061060091906126b5565b61226e565b6040516106129190612e9c565b60405180910390f35b600c818154811061062b57600080fd5b9060005260206000209060209182820401919006915054906101000a900460ff1681565b60008054906101000a900473ffffffffffffffffffffffffffffffffffffffff1681565b600060048111156106ad577f4e487b7100000000000000000000000000000000000000000000000000000000600052602160045260246000fd5b600e6000815481106106e8577f4e487b7100000000000000000000000000000000000000000000000000000000600052603260045260246000fd5b90600052602060002090602091828204019190069054906101000a900460ff166004811115610740577f4e487b7100000000000000000000000000000000000000000000000000000000600052602160045260246000fd5b1480610816575060016004811115610781577f4e487b7100000000000000000000000000000000000000000000000000000000600052602160045260246000fd5b600e6000815481106107bc577f4e487b7100000000000000000000000000000000000000000000000000000000600052603260045260246000fd5b90600052602060002090602091828204019190069054906101000a900460ff166004811115610814577f4e487b7100000000000000000000000000000000000000000000000000000000600052602160045260246000fd5b145b610855576040517f08c379a000000000000000000000000000000000000000000000000000000000815260040161084c90612de1565b60405180910390fd5b6001600081548110610890577f4e487b7100000000000000000000000000000000000000000000000000000000600052603260045260246000fd5b9060005260206000200160009054906101000a900473ffffffffffffffffffffffffffffffffffffffff1673ffffffffffffffffffffffffffffffffffffffff163373ffffffffffffffffffffffffffffffffffffffff1614610928576040517f08c379a000000000000000000000000000000000000000000000000000000000815260040161091f90612d61565b60405180910390fd5b6000600260009054906101000a900473ffffffffffffffffffffffffffffffffffffffff1673ffffffffffffffffffffffffffffffffffffffff1663557ed1ba6040518163ffffffff1660e01b815260040160206040518083038186803b15801561099257600080fd5b505afa1580156109a6573d6000803e3d6000fd5b505050506040513d601f19601f820116820180604052508101906109ca9190612773565b9050600654811115610a11576040517f08c379a0000000000000000000000000000000000000000000000000000000008152600401610a0890612d41565b60405180910390fd5b6000600260009054906101000a900473ffffffffffffffffffffffffffffffffffffffff1673ffffffffffffffffffffffffffffffffffffffff166398d5fdca6040518163ffffffff1660e01b815260040160206040518083038186803b158015610a7b57600080fd5b505afa158015610a8f573d6000803e3d6000fd5b505050506040513d601f19601f82011682018060405250810190610ab39190612773565b90506000816301c9c380610ac79190612fc1565b9050803414610b0b576040517f08c379a0000000000000000000000000000000000000000000000000000000008152600401610b0290612d21565b60405180910390fd5b7f39af4195e7b857617d2a021fa1e924b3694ed3278711a1b9db011d998c41a2bf6000604051610b3b9190612ca4565b60405180910390a1806008600081548110610b7f577f4e487b7100000000000000000000000000000000000000000000000000000000600052603260045260246000fd5b906000526020600020016000828254610b989190612f6b565b925050819055506001600e600081548110610bdc577f4e487b7100000000000000000000000000000000000000000000000000000000600052603260045260246000fd5b90600052602060002090602091828204019190066101000a81548160ff02191690836004811115610c36577f4e487b7100000000000000000000000000000000000000000000000000000000600052602160045260246000fd5b0217905550505050565b60088181548110610c5057600080fd5b906000526020600020016000915090505481565b610c6d336122a6565b610cac576040517f08c379a0000000000000000000000000000000000000000000000000000000008152600401610ca390612e01565b60405180910390fd5b6000600260009054906101000a900473ffffffffffffffffffffffffffffffffffffffff1673ffffffffffffffffffffffffffffffffffffffff1663557ed1ba6040518163ffffffff1660e01b815260040160206040518083038186803b158015610d1657600080fd5b505afa158015610d2a573d6000803e3d6000fd5b505050506040513d601f19601f82011682018060405250810190610d4e9190612773565b9050600654811115610d95576040517f08c379a0000000000000000000000000000000000000000000000000000000008152600401610d8c90612d41565b60405180910390fd5b600c8281548110610dcf577f4e487b7100000000000000000000000000000000000000000000000000000000600052603260045260246000fd5b90600052602060002090602091828204019190069054906101000a900460ff16610e2e576040517f08c379a0000000000000000000000000000000000000000000000000000000008152600401610e2590612e61565b60405180910390fd5b600d8281548110610e68577f4e487b7100000000000000000000000000000000000000000000000000000000600052603260045260246000fd5b90600052602060002090602091828204019190069054906101000a900460ff16610ec7576040517f08c379a0000000000000000000000000000000000000000000000000000000008152600401610ebe90612e41565b60405180910390fd5b7f9a9cad27a1bdce3d7cb0602aaf727dfaad03ba6524d9bca7b9615867fa6802b482604051610ef69190612e81565b60405180910390a16004600e8381548110610f3a577f4e487b7100000000000000000000000000000000000000000000000000000000600052603260045260246000fd5b90600052602060002090602091828204019190066101000a81548160ff02191690836004811115610f94577f4e487b7100000000000000000000000000000000000000000000000000000000600052602160045260246000fd5b021790555060018281548110610fd3577f4e487b7100000000000000000000000000000000000000000000000000000000600052603260045260246000fd5b9060005260206000200160009054906101000a900473ffffffffffffffffffffffffffffffffffffffff1673ffffffffffffffffffffffffffffffffffffffff166108fc60088481548110611051577f4e487b7100000000000000000000000000000000000000000000000000000000600052603260045260246000fd5b90600052602060002001549081150290604051600060405180830381858888f19350505050158015611087573d6000803e3d6000fd5b505050565b600e818154811061109c57600080fd5b9060005260206000209060209182820401919006915054906101000a900460ff1681565b6000600260009054906101000a900473ffffffffffffffffffffffffffffffffffffffff1673ffffffffffffffffffffffffffffffffffffffff1663557ed1ba6040518163ffffffff1660e01b815260040160206040518083038186803b15801561112a57600080fd5b505afa15801561113e573d6000803e3d6000fd5b505050506040513d601f19601f820116820180604052508101906111629190612773565b90506006548111156111a9576040517f08c379a00000000000000000000000000000000000000000000000000000000081526004016111a090612d41565b60405180910390fd5b7f1cdde67b72a90f19919ac732a437ac2f7a10fc128d28c2a6e525d89ce5cd9d3a60405160405180910390a160005b600480549050811015611293576004600e8281548110611221577f4e487b7100000000000000000000000000000000000000000000000000000000600052603260045260246000fd5b90600052602060002090602091828204019190066101000a81548160ff0219169083600481111561127b577f4e487b7100000000000000000000000000000000000000000000000000000000600052602160045260246000fd5b0217905550808061128b90613107565b9150506111d8565b5050565b60016000815481106112d2577f4e487b7100000000000000000000000000000000000000000000000000000000600052603260045260246000fd5b9060005260206000200160009054906101000a900473ffffffffffffffffffffffffffffffffffffffff1673ffffffffffffffffffffffffffffffffffffffff163373ffffffffffffffffffffffffffffffffffffffff161461136a576040517f08c379a000000000000000000000000000000000000000000000000000000000815260040161136190612d01565b60405180910390fd5b6000600260009054906101000a900473ffffffffffffffffffffffffffffffffffffffff1673ffffffffffffffffffffffffffffffffffffffff1663557ed1ba6040518163ffffffff1660e01b815260040160206040518083038186803b1580156113d457600080fd5b505afa1580156113e8573d6000803e3d6000fd5b505050506040513d601f19601f8201168201806040525081019061140c9190612773565b9050600654811115611453576040517f08c379a000000000000000000000000000000000000000000000000000000000815260040161144a90612d41565b60405180910390fd5b600a60008154811061148e577f4e487b7100000000000000000000000000000000000000000000000000000000600052603260045260246000fd5b90600052602060002090602091828204019190069054906101000a900460ff166114ed576040517f08c379a00000000000000000000000000000000000000000000000000000000081526004016114e490612dc1565b60405180910390fd5b6009600081548110611528577f4e487b7100000000000000000000000000000000000000000000000000000000600052603260045260246000fd5b90600052602060002090602091828204019190069054906101000a900460ff16611587576040517f08c379a000000000000000000000000000000000000000000000000000000000815260040161157e90612d81565b60405180910390fd5b7ffb81f9b30d73d830c3544b34d827c08142579ee75710b490bab0b3995468c56560006040516115b79190612ca4565b60405180910390a16002600e6000815481106115fc577f4e487b7100000000000000000000000000000000000000000000000000000000600052603260045260246000fd5b90600052602060002090602091828204019190066101000a81548160ff02191690836004811115611656577f4e487b7100000000000000000000000000000000000000000000000000000000600052602160045260246000fd5b021790555060008054906101000a900473ffffffffffffffffffffffffffffffffffffffff1673ffffffffffffffffffffffffffffffffffffffff166108fc60086000815481106116d0577f4e487b7100000000000000000000000000000000000000000000000000000000600052603260045260246000fd5b90600052602060002001549081150290604051600060405180830381858888f19350505050158015611706573d6000803e3d6000fd5b5060006008600081548110611744577f4e487b7100000000000000000000000000000000000000000000000000000000600052603260045260246000fd5b906000526020600020018190555050565b600f60009054906101000a900473ffffffffffffffffffffffffffffffffffffffff1673ffffffffffffffffffffffffffffffffffffffff163373ffffffffffffffffffffffffffffffffffffffff16146117e5576040517f08c379a00000000000000000000000000000000000000000000000000000000081526004016117dc90612ce1565b60405180910390fd5b80600260006101000a81548173ffffffffffffffffffffffffffffffffffffffff021916908373ffffffffffffffffffffffffffffffffffffffff16021790555050565b6001818154811061183957600080fd5b906000526020600020016000915054906101000a900473ffffffffffffffffffffffffffffffffffffffff1681565b60055481565b600d818154811061187e57600080fd5b9060005260206000209060209182820401919006915054906101000a900460ff1681565b600f60009054906101000a900473ffffffffffffffffffffffffffffffffffffffff1673ffffffffffffffffffffffffffffffffffffffff163373ffffffffffffffffffffffffffffffffffffffff1614611932576040517f08c379a000000000000000000000000000000000000000000000000000000000815260040161192990612ce1565b60405180910390fd5b80600190805190602001906119489291906123d6565b5050565b60038054611959906130d5565b80601f0160208091040260200160405190810160405280929190818152602001828054611985906130d5565b80156119d25780601f106119a7576101008083540402835291602001916119d2565b820191906000526020600020905b8154815290600101906020018083116119b557829003601f168201915b505050505081565b60065481565b600981815481106119f057600080fd5b9060005260206000209060209182820401919006915054906101000a900460ff1681565b600f60009054906101000a900473ffffffffffffffffffffffffffffffffffffffff1681565b600f60009054906101000a900473ffffffffffffffffffffffffffffffffffffffff1673ffffffffffffffffffffffffffffffffffffffff163373ffffffffffffffffffffffffffffffffffffffff1614611aca576040517f08c379a0000000000000000000000000000000000000000000000000000000008152600401611ac190612ce1565b60405180910390fd5b806000806101000a81548173ffffffffffffffffffffffffffffffffffffffff021916908373ffffffffffffffffffffffffffffffffffffffff16021790555050565b60048181548110611b1d57600080fd5b906000526020600020016000915090508054611b38906130d5565b80601f0160208091040260200160405190810160405280929190818152602001828054611b64906130d5565b8015611bb15780601f10611b8657610100808354040283529160200191611bb1565b820191906000526020600020905b815481529060010190602001808311611b9457829003601f168201915b505050505081565b600a8181548110611bc957600080fd5b9060005260206000209060209182820401919006915054906101000a900460ff1681565b6001805490508110611c34576040517f08c379a0000000000000000000000000000000000000000000000000000000008152600401611c2b90612e21565b60405180910390fd5b60008054906101000a900473ffffffffffffffffffffffffffffffffffffffff1673ffffffffffffffffffffffffffffffffffffffff163373ffffffffffffffffffffffffffffffffffffffff161415611cf257600160098281548110611cc4577f4e487b7100000000000000000000000000000000000000000000000000000000600052603260045260246000fd5b90600052602060002090602091828204019190066101000a81548160ff021916908315150217905550611e54565b60005b600480549050811015611e185760018181548110611d3c577f4e487b7100000000000000000000000000000000000000000000000000000000600052603260045260246000fd5b9060005260206000200160009054906101000a900473ffffffffffffffffffffffffffffffffffffffff1673ffffffffffffffffffffffffffffffffffffffff163373ffffffffffffffffffffffffffffffffffffffff161415611e05576001600a8281548110611dd6577f4e487b7100000000000000000000000000000000000000000000000000000000600052603260045260246000fd5b90600052602060002090602091828204019190066101000a81548160ff02191690831515021790555050611e55565b8080611e1090613107565b915050611cf5565b506040517f08c379a0000000000000000000000000000000000000000000000000000000008152600401611e4b90612e01565b60405180910390fd5b5b50565b6000600260009054906101000a900473ffffffffffffffffffffffffffffffffffffffff1673ffffffffffffffffffffffffffffffffffffffff1663557ed1ba6040518163ffffffff1660e01b815260040160206040518083038186803b158015611ec257600080fd5b505afa158015611ed6573d6000803e3d6000fd5b505050506040513d601f19601f82011682018060405250810190611efa9190612773565b9050600754811015611f41576040517f08c379a0000000000000000000000000000000000000000000000000000000008152600401611f3890612da1565b60405180910390fd5b7f973868388330ac1d5054c66dcb90529404fa660ca9388183907fd50ae9008f6960405160405180910390a160005b60048054905081101561211a576004600e8281548110611fb9577f4e487b7100000000000000000000000000000000000000000000000000000000600052603260045260246000fd5b90600052602060002090602091828204019190066101000a81548160ff02191690836004811115612013577f4e487b7100000000000000000000000000000000000000000000000000000000600052602160045260246000fd5b021790555060018181548110612052577f4e487b7100000000000000000000000000000000000000000000000000000000600052603260045260246000fd5b9060005260206000200160009054906101000a900473ffffffffffffffffffffffffffffffffffffffff1673ffffffffffffffffffffffffffffffffffffffff166108fc600883815481106120d0577f4e487b7100000000000000000000000000000000000000000000000000000000600052603260045260246000fd5b90600052602060002001549081150290604051600060405180830381858888f19350505050158015612106573d6000803e3d6000fd5b50808061211290613107565b915050611f70565b5050565b612127336122a6565b612166576040517f08c379a000000000000000000000000000000000000000000000000000000000815260040161215d90612e01565b60405180910390fd5b80600b836040516121779190612c21565b908152602001604051809103902060006101000a81548163ffffffff021916908363ffffffff1602179055505050565b60005b6004805490508110156122645781600e82815481106121f2577f4e487b7100000000000000000000000000000000000000000000000000000000600052603260045260246000fd5b90600052602060002090602091828204019190066101000a81548160ff0219169083600481111561224c577f4e487b7100000000000000000000000000000000000000000000000000000000600052602160045260246000fd5b0217905550808061225c90613107565b9150506121aa565b5050565b60075481565b6000600b826040516122809190612c21565b908152602001604051809103902060009054906101000a900463ffffffff169050919050565b60008060009054906101000a900473ffffffffffffffffffffffffffffffffffffffff1673ffffffffffffffffffffffffffffffffffffffff168273ffffffffffffffffffffffffffffffffffffffff16141561230657600190506123d1565b60005b6001805490508110156123cb5760018181548110612350577f4e487b7100000000000000000000000000000000000000000000000000000000600052603260045260246000fd5b9060005260206000200160009054906101000a900473ffffffffffffffffffffffffffffffffffffffff1673ffffffffffffffffffffffffffffffffffffffff168373ffffffffffffffffffffffffffffffffffffffff1614156123b85760019150506123d1565b80806123c390613107565b915050612309565b50600090505b919050565b82805482825590600052602060002090810192821561244f579160200282015b8281111561244e5782518260006101000a81548173ffffffffffffffffffffffffffffffffffffffff021916908373ffffffffffffffffffffffffffffffffffffffff160217905550916020019190600101906123f6565b5b50905061245c9190612460565b5090565b5b80821115612479576000816000905550600101612461565b5090565b600061249061248b84612ee8565b612eb7565b905080838252602082019050828560208602820111156124af57600080fd5b60005b858110156124df57816124c5888261253c565b8452602084019350602083019250506001810190506124b2565b5050509392505050565b60006124fc6124f784612f14565b612eb7565b90508281526020810184848401111561251457600080fd5b61251f848285613093565b509392505050565b60008135905061253681613260565b92915050565b60008135905061254b81613277565b92915050565b600082601f83011261256257600080fd5b813561257284826020860161247d565b91505092915050565b60008135905061258a8161328e565b92915050565b600082601f8301126125a157600080fd5b81356125b18482602086016124e9565b91505092915050565b6000813590506125c98161329e565b92915050565b6000815190506125de8161329e565b92915050565b6000813590506125f3816132b5565b92915050565b60006020828403121561260b57600080fd5b600061261984828501612527565b91505092915050565b60006020828403121561263457600080fd5b60006126428482850161253c565b91505092915050565b60006020828403121561265d57600080fd5b600082013567ffffffffffffffff81111561267757600080fd5b61268384828501612551565b91505092915050565b60006020828403121561269e57600080fd5b60006126ac8482850161257b565b91505092915050565b6000602082840312156126c757600080fd5b600082013567ffffffffffffffff8111156126e157600080fd5b6126ed84828501612590565b91505092915050565b6000806040838503121561270957600080fd5b600083013567ffffffffffffffff81111561272357600080fd5b61272f85828601612590565b9250506020612740858286016125e4565b9150509250929050565b60006020828403121561275c57600080fd5b600061276a848285016125ba565b91505092915050565b60006020828403121561278557600080fd5b6000612793848285016125cf565b91505092915050565b6127a581613004565b82525050565b6127b481612ff2565b82525050565b6127c381613016565b82525050565b6127d28161306f565b82525050565b6127e181613081565b82525050565b60006127f282612f44565b6127fc8185612f4f565b935061280c8185602086016130a2565b6128158161323b565b840191505092915050565b600061282b82612f44565b6128358185612f60565b93506128458185602086016130a2565b80840191505092915050565b600061285e601783612f4f565b91507f43616c6c6572206973206e6f7420746865206f776e65720000000000000000006000830152602082019050919050565b600061289e601e83612f4f565b91507f4f6e6c792062757965722063616e2072656c65617365207061796d656e7400006000830152602082019050919050565b60006128de601883612f4f565b91507f496e636f7272656374207061796d656e7420616d6f756e7400000000000000006000830152602082019050919050565b600061291e601a83612f4f565b91507f54696d65206c61746572207468616e20436c6f73652074696d650000000000006000830152602082019050919050565b600061295e601283612f4f565b91507f4f6e6c792062757965722063616e2070617900000000000000000000000000006000830152602082019050919050565b600061299e602183612f4f565b91507f53656c6c657220686173206e6f7420636f6e6669726d6564207075726368617360008301527f65000000000000000000000000000000000000000000000000000000000000006020830152604082019050919050565b6000612a04602083612f4f565b91507f4f75747369646520636c6f73696e672064617465206e6f7420726561636865646000830152602082019050919050565b6000612a44602083612f4f565b91507f427579657220686173206e6f7420636f6e6669726d65642070757263686173656000830152602082019050919050565b6000612a84600d83612f4f565b91507f496e76616c6964207374617465000000000000000000000000000000000000006000830152602082019050919050565b6000612ac4601583612f4f565b91507f43616c6c6572206e6f7420617574686f72697a656400000000000000000000006000830152602082019050919050565b6000612b04601383612f4f565b91507f496e76616c696420627579657220696e646578000000000000000000000000006000830152602082019050919050565b6000612b44602383612f4f565b91507f427579657220686173206e6f7420636f6e6669726d6564207465726d696e617460008301527f696f6e00000000000000000000000000000000000000000000000000000000006020830152604082019050919050565b6000612baa602483612f4f565b91507f53656c6c657220686173206e6f7420636f6e6669726d6564207465726d696e6160008301527f74696f6e000000000000000000000000000000000000000000000000000000006020830152604082019050919050565b612c0c81613055565b82525050565b612c1b8161305f565b82525050565b6000612c2d8284612820565b915081905092915050565b6000602082019050612c4d60008301846127ab565b92915050565b6000602082019050612c68600083018461279c565b92915050565b6000602082019050612c8360008301846127ba565b92915050565b6000602082019050612c9e60008301846127c9565b92915050565b6000602082019050612cb960008301846127d8565b92915050565b60006020820190508181036000830152612cd981846127e7565b905092915050565b60006020820190508181036000830152612cfa81612851565b9050919050565b60006020820190508181036000830152612d1a81612891565b9050919050565b60006020820190508181036000830152612d3a816128d1565b9050919050565b60006020820190508181036000830152612d5a81612911565b9050919050565b60006020820190508181036000830152612d7a81612951565b9050919050565b60006020820190508181036000830152612d9a81612991565b9050919050565b60006020820190508181036000830152612dba816129f7565b9050919050565b60006020820190508181036000830152612dda81612a37565b9050919050565b60006020820190508181036000830152612dfa81612a77565b9050919050565b60006020820190508181036000830152612e1a81612ab7565b9050919050565b60006020820190508181036000830152612e3a81612af7565b9050919050565b60006020820190508181036000830152612e5a81612b37565b9050919050565b60006020820190508181036000830152612e7a81612b9d565b9050919050565b6000602082019050612e966000830184612c03565b92915050565b6000602082019050612eb16000830184612c12565b92915050565b6000604051905081810181811067ffffffffffffffff82111715612ede57612edd61320c565b5b8060405250919050565b600067ffffffffffffffff821115612f0357612f0261320c565b5b602082029050602081019050919050565b600067ffffffffffffffff821115612f2f57612f2e61320c565b5b601f19601f8301169050602081019050919050565b600081519050919050565b600082825260208201905092915050565b600081905092915050565b6000612f7682613055565b9150612f8183613055565b9250827fffffffffffffffffffffffffffffffffffffffffffffffffffffffffffffffff03821115612fb657612fb5613150565b5b828201905092915050565b6000612fcc82613055565b9150612fd783613055565b925082612fe757612fe661317f565b5b828204905092915050565b6000612ffd82613035565b9050919050565b600061300f82613035565b9050919050565b60008115159050919050565b60008190506130308261324c565b919050565b600073ffffffffffffffffffffffffffffffffffffffff82169050919050565b6000819050919050565b600063ffffffff82169050919050565b600061307a82613022565b9050919050565b600061308c82613055565b9050919050565b82818337600083830152505050565b60005b838110156130c05780820151818401526020810190506130a5565b838111156130cf576000848401525b50505050565b600060028204905060018216806130ed57607f821691505b60208210811415613101576131006131dd565b5b50919050565b600061311282613055565b91507fffffffffffffffffffffffffffffffffffffffffffffffffffffffffffffffff82141561314557613144613150565b5b600182019050919050565b7f4e487b7100000000000000000000000000000000000000000000000000000000600052601160045260246000fd5b7f4e487b7100000000000000000000000000000000000000000000000000000000600052601260045260246000fd5b7f4e487b7100000000000000000000000000000000000000000000000000000000600052602160045260246000fd5b7f4e487b7100000000000000000000000000000000000000000000000000000000600052602260045260246000fd5b7f4e487b7100000000000000000000000000000000000000000000000000000000600052604160045260246000fd5b6000601f19601f8301169050919050565b6005811061325d5761325c6131ae565b5b50565b61326981612ff2565b811461327457600080fd5b50565b61328081613004565b811461328b57600080fd5b50565b6005811061329b57600080fd5b50565b6132a781613055565b81146132b257600080fd5b50565b6132be8161305f565b81146132c957600080fd5b5056fea264697066735822122066f80ff1372c1260fc139d0f5e3d6497a10d0aa32f2c6c504f7da991c0eccc0264736f6c634300080000334b414953455220414c554d494e554d2026204348454d4943414c20434f52504f524154494f4e",
  "immutableReferences": {},
  "source": "// SPDX-License-Identifier: GPL-3.0\npragma solidity ^0.8.0;\n\n// A Stock Purchase Contract template\nimport \"./OracleTest.sol\";\n\ncontract g_rs {\n\n    address payable public seller;\n    address payable[] public buyer;\n\n    OracleTest internal oracle;\n\n    string public sellerName;\n    string[] public buyerName;\n\n    uint256 public EffectiveTime;\n    uint256 public CloseTime;\n    uint256 public OutSideClosingDate;\n\n    uint256[] public pricePayedByBuyer;  // \n    bool[] public purchaseSellerConfirmed;  // \n    bool[] public purchaseBuyerConfirmed;  // \n\n    mapping(string => uint32) private fileHashMap;\n\n    bool[] public terminateSellerConfirmed;  // \n    bool[] public terminateBuyerConfirmed;  // \n\n    enum State { Created, Locked, Release, Transferred, Inactive }\n    State[] public state;  // \n\n    event Payed(uint256 paymentIndex);\n    event Released(uint256 paymentIndex);\n    event Terminated(uint256 buyerIndex);\n    event TerminatedByOutOfDate();\n    event Closed();\n\n    address public owner;\n\n    modifier onlyOwner() {\n        require(msg.sender == owner, \"Caller is not the owner\");\n        _;\n    }\n\n    constructor() payable {\n        owner = msg.sender;\n        sellerName = \"BANK OF AMERICA, N.A.\";\n        buyerName = [\"KAISER ALUMINUM & CHEMICAL CORPORATION\"];\n        seller = payable(address(0));\n        buyer = [payable(address(0))];\n\n        EffectiveTime = 1138233600; \n        CloseTime = 1000; \n        OutSideClosingDate = 1000; \n\n        state.push(State.Created);  // \n        pricePayedByBuyer.push(0);  // \n        purchaseSellerConfirmed.push(false);  // \n        purchaseBuyerConfirmed.push(false);  // \n        terminateSellerConfirmed.push(false);  // \n        terminateBuyerConfirmed.push(false);  // \n    }\n\n    function pay_0() public payable {\n        require(state[0] == State.Created || state[0] == State.Locked, \"Invalid state\");\n        require(msg.sender == buyer[0], \"Only buyer can pay\");\n\n        uint256 currentTime = oracle.getTime();\n        require(currentTime <= CloseTime, \"Time later than Close time\");\n\n        uint256 currentPrice = oracle.getPrice();\n        uint256 price = 30000000 / currentPrice; \n\n        require(msg.value == price, \"Incorrect payment amount\");\n\n        emit Payed(0);\n\n        pricePayedByBuyer[0] += price;\n\n        state[0] = State.Locked;\n    }\n\n    function purchaseConfirm(uint256 buyerIndex) public {\n        require(buyerIndex < buyer.length, \"Invalid buyer index\");\n\n        if (msg.sender == seller) {\n            purchaseSellerConfirmed[buyerIndex] = true;\n        } else {\n            for (uint256 i = 0; i < buyerName.length; i++) {\n                if (msg.sender == buyer[i]) {\n                    purchaseBuyerConfirmed[i] = true;\n                    return;\n                }\n            }\n            revert(\"Caller not authorized\");\n        }\n    }\n\n    function payRelease_0() public {\n        require(msg.sender == buyer[0], \"Only buyer can release payment\");\n\n        uint256 currentTime = oracle.getTime();\n        require(currentTime <= CloseTime, \"Time later than Close time\");\n\n        require(purchaseBuyerConfirmed[0], \"Buyer has not confirmed purchase\");\n        require(purchaseSellerConfirmed[0], \"Seller has not confirmed purchase\");\n\n        emit Released(0);\n\n        state[0] = State.Release;\n\n        seller.transfer(pricePayedByBuyer[0]);\n\n        pricePayedByBuyer[0] = 0;\n    }\n\n    function uploadFileHash(string memory fileName, uint32 hashCode) public {\n        require(isAuthorized(msg.sender), \"Caller not authorized\");\n\n        fileHashMap[fileName] = hashCode;\n    }\n\n    function terminateByTransfer(uint256 buyerIndex) public {\n        require(isAuthorized(msg.sender), \"Caller not authorized\");\n\n        uint256 currentTime = oracle.getTime();\n        require(currentTime <= CloseTime, \"Time later than Close time\");\n\n        require(terminateSellerConfirmed[buyerIndex], \"Seller has not confirmed termination\");\n        require(terminateBuyerConfirmed[buyerIndex], \"Buyer has not confirmed termination\");\n\n        emit Terminated(buyerIndex);\n\n        state[buyerIndex] = State.Inactive;\n\n        buyer[buyerIndex].transfer(pricePayedByBuyer[buyerIndex]);\n    }\n\n    function terminateByOutOfDate() public {\n        uint256 currentTime = oracle.getTime();\n        require(currentTime >= OutSideClosingDate, \"Outside closing date not reached\");\n\n        emit TerminatedByOutOfDate();\n\n        for (uint256 i = 0; i < buyerName.length; i++) {\n            state[i] = State.Inactive;\n            buyer[i].transfer(pricePayedByBuyer[i]);\n        }\n    }\n\n    function close() public {\n        uint256 currentTime = oracle.getTime();\n        require(currentTime <= CloseTime, \"Time later than Close time\");\n\n        emit Closed();\n\n        for (uint256 i = 0; i < buyerName.length; i++) {\n            state[i] = State.Inactive;\n        }\n    }\n\n    function setOracleAddress(address addr) public onlyOwner {\n        oracle = OracleTest(addr);\n    }\n\n    function setSellerAddress(address payable addr) public onlyOwner {\n        seller = addr;\n    }\n\n    function setBuyerAddress(address payable[] memory addrs) public onlyOwner {\n        buyer = addrs;\n    }\n\n    function setAllState(State s) public {\n        for (uint256 i = 0; i < buyerName.length; i++) {\n            state[i] = s;\n        }\n    }\n\n    function getFileHash(string memory fileName) public view returns (uint32) {\n        return fileHashMap[fileName];\n    }\n\n    function isAuthorized(address caller) internal view returns (bool) {\n        if (caller == seller) {\n            return true;\n        }\n        for (uint256 i = 0; i < buyer.length; i++) {\n            if (caller == buyer[i]) {\n                return true;\n            }\n        }\n        return false;\n    }\n}\n",
  "sourcePath": "/home/local/ASUAD/yhuan504/LLMSyn/ContractTest/contracts/g_rs.sol",
  "compiler": {
    "name": "solc",
    "version": "0.8.0+commit.c7dfd78e.Emscripten.clang"
  },
  "schemaVersion": "3.4.16",
  "updatedAt": "2024-11-27T02:25:29.529Z",
  "networkType": "ethereum",
  "devdoc": {
    "kind": "dev",
    "methods": {},
    "version": 1
  },
  "userdoc": {
    "kind": "user",
    "methods": {},
    "version": 1
  }
}