{
  "contractName": "OracleTest",
  "abi": [
    {
      "inputs": [],
      "name": "getTime",
      "outputs": [
        {
          "internalType": "uint256",
          "name": "",
          "type": "uint256"
        }
      ],
      "stateMutability": "view",
      "type": "function"
    },
    {
      "inputs": [],
      "name": "getPrice",
      "outputs": [
        {
          "internalType": "uint256",
          "name": "",
          "type": "uint256"
        }
      ],
      "stateMutability": "view",
      "type": "function"
    },
    {
      "inputs": [],
      "name": "getConditionState",
      "outputs": [
        {
          "internalType": "bool",
          "name": "",
          "type": "bool"
        }
      ],
      "stateMutability": "view",
      "type": "function"
    },
    {
      "inputs": [
        {
          "internalType": "uint256",
          "name": "_time",
          "type": "uint256"
        }
      ],
      "name": "setTime",
      "outputs": [],
      "stateMutability": "nonpayable",
      "type": "function"
    },
    {
      "inputs": [
        {
          "internalType": "uint256",
          "name": "_price",
          "type": "uint256"
        }
      ],
      "name": "setPrice",
      "outputs": [],
      "stateMutability": "nonpayable",
      "type": "function"
    },
    {
      "inputs": [
        {
          "internalType": "bool",
          "name": "_state",
          "type": "bool"
        }
      ],
      "name": "setConditionState",
      "outputs": [],
      "stateMutability": "nonpayable",
      "type": "function"
    }
  ],
  "bytecode": "0x60806040524260005560646001556001600260006101000a81548160ff02191690831515021790555034801561003457600080fd5b506102ba806100446000396000f3fe608060405234801561001057600080fd5b50600436106100625760003560e01c80633beb26c414610067578063557ed1ba1461008357806391b7f5ed146100a157806398d5fdca146100bd578063c9a3636b146100db578063e3b9d215146100f7575b600080fd5b610081600480360381019061007c91906101c3565b610115565b005b61008b61011f565b6040516100989190610225565b60405180910390f35b6100bb60048036038101906100b691906101c3565b610128565b005b6100c5610132565b6040516100d29190610225565b60405180910390f35b6100f560048036038101906100f0919061019a565b61013c565b005b6100ff610159565b60405161010c919061020a565b60405180910390f35b8060008190555050565b60008054905090565b8060018190555050565b6000600154905090565b80600260006101000a81548160ff02191690831515021790555050565b6000600260009054906101000a900460ff16905090565b60008135905061017f81610256565b92915050565b6000813590506101948161026d565b92915050565b6000602082840312156101ac57600080fd5b60006101ba84828501610170565b91505092915050565b6000602082840312156101d557600080fd5b60006101e384828501610185565b91505092915050565b6101f581610240565b82525050565b6102048161024c565b82525050565b600060208201905061021f60008301846101ec565b92915050565b600060208201905061023a60008301846101fb565b92915050565b60008115159050919050565b6000819050919050565b61025f81610240565b811461026a57600080fd5b50565b6102768161024c565b811461028157600080fd5b5056fea264697066735822122083cf3eb396525d3a25d44eddfda953ba94eb0d7c7636a34700b19de34df6846464736f6c63430008000033",
  "immutableReferences": {},
  "source": "// SPDX-License-Identifier: GPL-3.0\npragma solidity 0.8.0;\n\ncontract OracleTest {\n    uint256 private time = block.timestamp;\n    uint256 private price = 100; // \n    bool private conditionState = true;\n\n    function getTime() external view returns (uint256) {\n        return time;\n    }\n\n    function getPrice() external view returns (uint256) {\n        return price;\n    }\n\n    function getConditionState() external view returns (bool) {\n        return conditionState;\n    }\n\n    function setTime(uint256 _time) external {\n        time = _time;\n    }\n\n    function setPrice(uint256 _price) external {\n        price = _price;\n    }\n\n    function setConditionState(bool _state) external {\n        conditionState = _state;\n    }\n}\n",
  "sourcePath": "/home/local/ASUAD/yhuan504/LLMSyn/ContractTest/contracts/OracleTest.sol",
  "compiler": {
    "name": "solc",
    "version": "0.8.0+commit.c7dfd78e.Emscripten.clang"
  },
  "schemaVersion": "3.4.16",
  "updatedAt": "2024-11-27T02:24:52.404Z",
  "devdoc": {
    "kind": "dev",
    "methods": {},
    "version": 1
  },
  "userdoc": {
    "kind": "user",
    "methods": {},
    "version": 1
  }
}